:20E900007EEADB000000E00000000000464C45584449534B202020464C4558204469736B40
:20E9200020466F726D61747465720D0A044472697665206E756D62657220746F20666F72DB
:20E940006D61742028302D33293A20040D0A506C6561736520656E74657220302C20312C6E
:20E960002032206F7220332E0D0A040D0A466F726D617474696E6720447269766520040D2B
:20E980000A04546869732077696C6C20455241534520414C4C2044415441206F6E2074683D
:20E9A0006520434620436172642E0D0A5072657373205920746F20666F726D61742C20618B
:20E9C0006E79206F74686572206B657920746F2061626F72743A20040D0A41626F72746598
:20E9E00064202D2D206E6F7468696E6720776173207772697474656E2E0D0A04577269749B
:20EA0000696E672053797374656D20496E666F726D6174696F6E205265636F72642E2E2E64
:20EA20000D0A04436C656172696E6720726573657276656420547261636B20302073656356
:20EA4000746F72732E2E2E0D0A0457726974696E6720656D707479206469726563746F729A
:20EA60007920636861696E2E2E2E0D0A0457726974696E6720667265652D73706163652056
:20EA8000636861696E20286F6E6520646F742070657220747261636B292E2E2E0D0A040D0B
:20EAA0000A466F726D617420636F6D706C6574652E0D0A0443462043617264206572726F26
:20EAC0007220647572696E6720696E697469616C69736174696F6E2E0D0A048EE9173F0301
:20EAE000BDEB3F8EE96B3F03B6E9098B303F018EE97F3F038EE9823F033F0084DF81592752
:20EB0000068EE9D83F0339BDEB7BBEE907E607C50127068EEAB43F03398EE9FC3F03BDEB70
:20EB2000C98EEA233F03BDEC3E8EEA4A3F03BDEC698EEA6D3F03BDECAA8EEA9F3F033934F2
:20EB4000168EE92D3F033F008130250B813322078030B7E90920078EE94C3F0320E3B6E995
:20EB6000098401B7E905B6E909840227058EF30020038EF2C0BFE907351639BEE907BDED99
:20EB8000ABC604E707BDEDABC6E0E706BDEDABC601E701BDEDABC601E702BDEDABC6EFE730
:20EBA00007BDEDABF6E903E703BDEDABF6E904E704BDEDABF6E905E705BDEDABF6E906C4E7
:20EBC0000FCAE0E706BDEDAB393436BDED118E1000308810108EE90CC60BA6A0A7805A2625
:20EBE000F98E1000B6E9098B30A788188600A7881BB6E909A7881C8601A7881D8601A78888
:20EC00001E86FFA7881F86FFA7882086FEA788218601A788228601A788238601A78824864A
:20EC200026A7882586FFA7882686FFA788278600B7E9048603B7E903BDED25353639343672
:20EC40008600B7E904BDED118601B7E903BDED25BDED118602B7E903BDED25BDED118604DC
:20EC6000B7E903BDED2535363934368605B7E90BBDED11B6E90B81FF2708C600B6E90B4C0E
:20EC80002004C60086008E1000E784A7018600B7E904B6E90BB7E903BDED25B6E90B81FFE3
:20ECA00027057CE90B20C935363934368601B7E90A8601B7E90BBDED11B6E90B81FF270949
:20ECC000F6E90AB6E90B4C2013B6E90A81FF2708F6E90A5C86012004C60086008E1000E709
:20ECE00084A701B6E90AB7E904B6E90BB7E903BDED25B6E90B81FF27057CE90B20B8862E2D
:20ED00003F01B6E90A81FF27057CE90A20A3353639343286008E0100108E1000A7A0301FC9
:20ED200026FA353239343610BEE907BDED7CF6E903E723BDED7CF6E904E724BDED7CF6E9C0
:20ED400005E725BDED7CC6E0E726BDED7CC601E722BDEDABC630E727BDED9E86008E10000E
:20ED6000BDED90E680E7204C26F68600C600BDED90E7204C26F8BDED7C3536393416BEE9D2
:20ED800007E607C58026FAE607C54027FA3516393412BEE907E607C58026FA351239E627B0
:19EDA000C58026FAE627C50827F4393412BEE907E607C5C027FA351239C0
:00000001FF
