:020000040000FA
:200000007E833700000000E0003F202D204C6973742074686520636F6D6D616E647320612C
:200020007661696C61626C652E0D0A42202D204C6F61642074686520434620436172642048
:20004000627566666572207769746820666F6C6C6F77696E67203235362068657820766140
:200060006C7565732E0D0A44202D20446973706C6179207468652052414D20627566666572
:200080007220636F6E74656E74732E0D0A46202D2046696C6C2043462043617264206275A7
:2000A000666665722077697468206120636F6E7374616E742E0D0A49202D20496E697469BE
:2000C000616C6973652074686520434620436172642E0D0A4C202D205365742074686520C3
:2000E0004C424120616464726573732E0D0A72202D20526561642061206461746120626C62
:200100006F636B2066726F6D20746865434620436172642E0D0A52202D2052656164206149
:2001200020466C657820736563746F722066726F6D20746865434620436172642E0D0A774C
:20014000202D2057726974652061206461746120626C6F636B20746F207468652043462094
:20016000436172642E0D0A57202D205772697465206120466C657820736563746F7220747D
:200180006F2074686520434620436172642E0D0A76202D20566572696679207468652064CA
:2001A00061746120626C6F636B207772697474656E20746F2074686520434620436172640A
:2001C0002E0D0A56202D205665726966792074686520466C657820736563746F72207772D9
:2001E000697474656E20746F2074686520434620436172642E0D0A50202D205072696E7425
:20020000207468652070726F70657274696573206F662074686520434620436172642E0D3C
:200220000A53202D20536574207468652063757272656E7420466C657820736563746F72E5
:200240002E0D0A54202D20536574207468652063757272656E7420466C657820747261636F
:200260006B2E0D0A51202D20457869742074686973206170706C69636174696F6E20262084
:2002800072657475726E20746F20746865206D6F6E69746F722E0D0A040D0A043E04496ED5
:2002A000697469616C69736520434620436172642E0D04526561642046726F6D204346206F
:2002C000436172642E0D04577269746520746F20434620436172642E0D04526561642043F6
:2002E00046204361726420496E666F2E0D044572726F7220696E697469616C6973696E6705
:200300002074686520434620436172640D0457616974696E6720666F72204346204361720F
:20032000640D042A0D04456E7465722068657820636F64653A20048E82993F038E829C3FBB
:20034000033F00813F2603BD873181422603BD83BF81442603BD83D881462603BD86D68182
:20036000492603BD8464814C2603BD842A816C2603BD844D81522603BD858B81722603BDBF
:2003800085DC81772603BD862D81572603BD867B81762603BD872B81562603BD86EF81501A
:2003A0002603BD850F81532603BD874D81542603BD877181511026FF7E7E87807E8337340C
:2003C00036C6008E10003414BD87D63514A7805C26F4BD867B35363934368E100034108EFF
:2003E00012003410BDE436353635103510394C424120302076616C75652028686578293A56
:2004000020044C424120312076616C75652028686578293A20044C424120322076616C754E
:20042000652028686578293A20043406108E83EEBD87B3B78004108E8402BD87B3B7800571
:20044000108E8416BD87B3B780063506393406BD87B3B78004BD87B3B78005BD87B3B780EF
:20046000063506398EF2C0BD87A1C604E707BD87A1C6E0E706BD87A1C601E701BD87A1C66E
:2004800001E702BD87A1C6EFE707BD87A1F68004E703BD87A1F68005E704BD87A1F68006F5
:2004A000E705BD87A1C607C40FCAE0E706BD87A1BD87A93920202053657269616C204E6F8C
:2004C0002E3A20044669726D77617265205265762E3A2004202020204D6F64656C204E6F2C
:2004E0002E3A200420202020202020202020202020202020312020322020332020340420C2
:200500002020204C42412053697A65203A20043436BD87A18EF2C0C6ECE707108E1000BDD9
:200520008799E607C5082706E600E7A020F18E84D43F03108E1036C614A6213F01A6A13FC3
:20054000015A26F58E84C43F03108E102EC604A6213F01A6A13F015A26F58E84B43F03104C
:200560008E1014C60AA6213F01A6A13F015A26F58E84FF3F03108E106BC60230A43F04307B
:200580003F3F04313E5A26F335363934368EF2C0BD8799F68004E703BD8799F68005E70425
:2005A000BD8799F68006E705BD8799F68007C40FCAE0E706BD8799C601E702BD8799C620E2
:2005C000E707BD8799108E1000BD8799A600A7A0BD8799A607850826F03536393934361054
:2005E0008EF2C0BD8786B68004A723BD8786B68005A724BD8786B68006A725BD878686E01B
:20060000A726840F8AE0BD87868620A727BD878686008E1000BD8799A620A7804C26F6BDF5
:200620008799E620A627850826F53536393436BD87A18EF2C0B68004A703BD87A1B68005E8
:20064000A704BD87A1B68006A705BD87A1B68007A706840F8AE0BD87A18601A702BD87A15C
:200660008630A707BD87A1108E1000A6A0A700BD8799A607850826F33536393436108EF2C8
:20068000C0BD8786F68004E723BD8786F68005E724BD8786F68006E725BD8786C6E0E7262D
:2006A000C40FCAE0BD8786C601E702BD87A1C630E727BD878686008E1000BD8799E680E742
:2006C000204C26F68600C600BD8799E7204C26F8BD87863536393402108E8326BD87B38E88
:2006E0000200108E1000A7A0301F26FA35023939566572696679206572726F722061742017
:200700000420204361726420646174612076616C7565203A200442756666657220646174F3
:20072000612076616C7565203A20048E86F03F03398E80093F0339536563746F72206E7519
:200740006D6265722028686578293A20043426108E8737BD87B3B7800435263954726163D9
:200760006B206E756D6265722028686578293A20043426108E875CBD87B3B78005352639AF
:200780008E82993F03393406F6F2C7C58026F9F6F2C7C54027F9350639F6F2C7C58026F98D
:2007A00039F6F2C7C5C027F939F6F2C7C50127023F03398E82993F0330A43F03BD87F0C560
:2007C000F026F0585858588E8003E784BD87F0EB84E784A68439BD87F0C5F026F9585858B6
:2007E000588E8003E784BD87F0EB84E784A684393F0081302603C6003981312603C60139C1
:2008000081322603C6023981332603C6033981342603C6043981352603C605398136260378
:20082000C6063981372603C6073981382603C6083981392603C6093984DF81412603C60ADA
:200840003981422603C60B3981432603C60C3981442603C60D3981452603C60E398146268E
:0708600003C60F39C6F03991
:204700007EC7217EC7037EC7477EC7857EC7957EC71F0C00000000C810C810000000003B60
:20472000121A10BECC3110EF027DCC3426118ECCFC7CCC346D842707BFCC3110EE023B8E57
:20474000CCF87FCC3420F11A107DC71B2729BEC719A6843402EC018ECAC0ED88403502A796
:20476000036F848601A7026F88226F883B7DC71E2729113F1220F61CEFAD9FD3ED7FCCFC40
:20478000113F1220F41A107DCC302705113F1220F47CCC30397FCC301CEF397DC71D262740
:2047A0008ECAC0BDD406261F7DC71C270F7FC71C810A270F3402860A8D3C3502810D2603CF
:2047C000B7C71C8D3120D4860D8D2B860A8D27B6C7128D227FC71DBEC7196D0327056A03B6
:2047E0007EC74730048CC84026038EC810BFC7197AC71B7EC747BDCCD82B05113F1220F646
:034800007ECCE487
:10484000FF00000053544152545550005458540036
:204A00008639B7D3FDAD9FD3F5BED3FBBFCD0ABFCD0DBED3F9BFCD10BFCD13BED3F7BFCDA8
:204A20004F8E00A0C6B9A684E78412E184260BA784308904008CC0A026EC3089FF5FBFCCB5
:204A40002B8ECD03BFCC168ECAC7BDCE82BDCEB48ECAD0BDCE82BDCE2C8D5B25F3B7CC0E44
:204A60008D5425ECB7CC0F8D4D25E5B7CC10BDCEB48EC8408601A784BDD4062708A601BD8A
:204A8000D1FF7ECD6B8EC080BFCC148EC840BDD406270534307ED2D6BECC14A780810D26C7
:204AA000E78EC840BDD1F38EC080BFCC148ECD6BBFCC437ED32DBDD174250BB6CC1C5D2725
:204AC000031CFE391A0139464C455820392E31044441544520284D4D2C44442C5959293F47
:024AE0002004B0
:204C000008183A000004000000FF1B0000000000000000000000000000000000000000001C
:154C20000000000000000000000000000000000100000000007E
:014C4900006A
:204C4E002B2B2B043F3F3F04574841543F0443414E2754205452414E53464552044E4F54C2
:204C6E0020464F554E44044449534B204552524F52202304445249564553204E4F5420521A
:1A4C8E00454144590447455400D20E4D4F4E00D34A00271003E80064000A8E
:014CC00039BA
:014CD80039A2
:014CE4003996
:084CF8000100000000000000B3
:204D00007ECD577ECD6B7ECDB27ECD097ECD0C7ECD0F7ECD127ECEFA7ECF407ECE2C7ECE45
:204D2000827ECFED7ECEB47ED00E7ECDEB7ED0367ED1A17ED0EA7ED3487ECF857ECFD47E6F
:204D4000D27E7ED12E7ECFD07ED1747ED3287ECD4E7ECE067ECE0610CEC07F7FCC11AD9F2B
:204D6000D3F5BDD4007FCC28BDD3FD10CEC07F8ECD03BFCC168EC700AF9FD3E9BED3E7AF38
:204D80009FD3EB8ECCF8BFCC317FCC347FCC4C8D5AB6CC11B1CC0226057CCC1520147DCC94
:204DA0002810260595BDD40326B18ECC4EBDCE828D7ABDD0D3810D27E58EC8407CCC0DBD32
:204DC000D03625168ECC938D3E2709BECC1227078D3526036E9801BDD22D8ECC568615B730
:204DE000CC20BDCE827FCC117ECD6BBECD13BFCD10BECD0DBFCD0A7FCC237FCC227FCC21F9
:204E00007FCC267FCC2439108EC844A6A0815F23028020A18026086D8426F06DA4270C6DDD
:204E20008026FC30026D8426DE1CFB398EC080BFCC14BDCEFAB1CC01271DB1CC00271F8161
:204E40000D270D810A2732811F23E78CC0FF27E2A780810D26DC398ECC528D2620CE8CC0A6
:204E60008027F4301FB6CC07810826088620BDCF65B6CC07BDCF6520B9860DBDCF40862019
:204E800020C98D30A6848104276DBDCF40300120F3BDCD4E2763BDCD09B1CC0A265B7FCCD1
:204EA0001ABDCD09B1CC0A2750810D26F47FCC116E9FCC167DCC2126278DD6B6CC0327206E
:204EC000B1CC1A22187FCC1A7DCC0927028DCF3404F6CC0827058D085A26FB35047CCC1AEC
:204EE000860D8D5C860A8D583404F6CC0527064F8D4E5A26FA35041CFE397DCC23261A7D3C
:204F0000CC2627108D1A7DCC2F27117DCC24270C8D532008BDCD092003BDCD0C7FCC1A397F
:204F2000BFCC47BECC262006BFCC47BECC24BDD4062604BECC47397FCC24BDD27E7ECD03B4
:204F40007DCC212620811F22057FCC2920177CCC293402B6CC04270BB1CC292406BDCEB4C1
:204F60007CCC29350234027DCC2226137DCC2427048DB5200D7DCC262608BDCD0F2003BD92
:204F8000CD123502397FCC4AF7CC1D8604B7CC4DEC848ECCA08D0C30027ACC4D26F71F9857
:204FA0004D203D7FCC4B10A3842507A3847CCC4B20F43402B6CC4B26107DCC4A260B7DCC3A
:204FC0001D270B86208D2320057CCC4A8D1235828D023001A6848D04A68420044444444446
:204FE000840F8B30813923028B077ECF4081302514813923168141250C815A230E81612582
:2050000004817A23061A01B7CC11391CFE393410BECC14B6CC18B7CC19A680B7CC18810DC6
:205020002710B1CC02270BBFCC1481202604A18427E78DB935908615A70186FFA7036F04FB
:205040006F0CBDD0D38608B7CC4B8D34252E260F8D2E25282609BCCC3F276B8D232367BE48
:20506000CC3F6D0427606D032A0F7DCC0D2705B6CC0B2003B6CC0CA7037FCC0DBECC3F39C0
:205080008D8C254281392215BECC3F6D032A378403A703BDD00E242E812E1CFE39F6CC4BD8
:2050A0002B243404C005F7CC4B3504816025028020A70430015ABDD00E2408812D2704815E
:2050C0005F26065D26E51A01395D27CC6F0430015A20F6BFCC3FBECC14A684812026043098
:2050E0000120F6BFCC14BECC3F393430E60C2618108ED10A810B2210C6033D31A5C603A6E2
:20510000A0A70C30015A26F735B042494E545854434D4442415353595342414B5343524433
:2051200041544241434449525052544F5554BDD21DBDD00E25228D2625183404C60478CC83
:205140001C79CC1B5A26F73504BBCC1CB7CC1C5C20DFBDD00E24FB39BECC1B1CFE398047D4
:205160002A0F8B062A048B072A078B0A2B031CFE391A0139BDD21DBDD00E25DC813922D214
:20518000840F34043402FCCC1B584958495849F3CC1BF3CC1BEBE08900FDCC1B35045C20A7
:2051A000D67FCC1D8D3D81022715811626F68D33B7CC1E8D2EB7CC1F8601B7CC1D20E58DFE
:2051C000221F898D1E1E89F3CC1BFDCC3D8D141F894D27D08D0DBECC3DA780BFCC3D5A2676
:2051E000F320C18EC840BDD4062711A6018108260E32628604A784BDD406260D1CFE39B7F5
:20520000CC20810426031A01398D737ECDE586008D35250F8D077CCC4C8D8620F14F5FFDFD
:20522000CC1B39F6CC4C1027FBB07ECD0386028D228DEABDD1A1F6CC1D27046E9FCC1E8EA4
:20524000CC5C86817ECDDF34028EC840BDD0363502251A8EC840BDD0EA8EC8408601A7849B
:20526000BDD1E3102500BB86FFA7883B39B6CC11810D2707B1CC021026FB5F1A013934308F
:20528000A601B7CC202763BDCDEB10BECC2D260881102758108ED3608EC8406D0227098634
:2052A00004A784BDD406262E8EC838C60B8D6E8EC840B6CC0BA7038601A784BDD406261628
:2052C000B6CC204A47474C6F8820A788218615A784BDD406271E8ECC75BDCE82BECC3FB6A4
:2052E000CC20A7016F845FBDCF8535B08ECC82BDCE8220F6BDCEB48EC840B6CC204A84038B
:20530000C63F3DCB04E78822BDD40626C9BDCF40810D26F48604A784BDD40620CD34307ED6
:20532000D0FF8ECC6B7ECDE23506FDCC4310FFCC457FCC207CCC287ECDB97FCC2810FECC19
:2053400045F6CC206E9FCC433A397DCCFC26046E9FD3F38EC840861BA701BDD27E7ECD6BB3
:0B5360004552524F5253000053595366
:1B53E500F800F80FF810F811F812F813F814F815F81FF84BF856F8687ECA001F
:205400007ED4367ED4597ED47B204449534B204F5045524154494E472053595354454D2053
:20542000434F50595249474854202843292031393830204259FFBDDE158ED409C60A8D11CA
:205440008E0005BFD413BFD4157FD41A8ED41BC61A6F805A26FB7EC70CBDC709BED4092797
:20546000EB3088E4BFD40B3420BDDAC8352024ECBED40B6F02BDC70CC6FF397DCCFC2703E4
:20548000BDC7093424BFD40B6F01E6842622E602271AC1022711BDD5B5BED40B25267DCCCB
:2054A000FC26235F352439BDD6D020EDC6122014C1162304C601200C5A588ED4CEAD95BE67
:2054C000D40B2402E701BDC70C6D01352439D989D9DDDAFEDAC8D5E3D81FD83BD879D64292
:2054E000D6A0D96CDBDBDB31D69ADA8CD812D570D591DB0CDDC5DD02DCEC8D202605C602F4
:205500001A0139ED84AE846F846F01398D0E2705C60D1A0139EC94ED841CFE39FCD40BC328
:20552000001C8ED40910AE8426031CFB3910A384260139AE8420EEBED40B4FC6008D02C64B
:205540002FA7881130015A26F839BED40BC60BA604A7882430015A26F639BED40BC60BA69B
:20556000043402A68824A1E0260530015A26F039BED40BE602542479E688237ED601BED42B
:205580000BE688226C88223AA788405C261F1A0139BED40BE602C403C1032655CA80E702FE
:2055A000E60FC580260AE688233AA788401CFE39C60B1A0139A6883B2B3C27076A883B861E
:2055C00020201D8D31251B8118221527F68109260C8D23250DBED40BA7883B20D84D27E38F
:2055E0001CFE39BDDAB6250985012705A7847ED9A3C6121A0139BED40BE68822270A6C8888
:20560000223AA688401CFE398D0324EA39BED40BEC88406C882126036C8820108300002739
:205620001CED881E34028604A7882235028D132410C5802704C6102006C6092002C6081A5A
:2056400001398D25BED40BBDDE0C25128D11BDDE0026031CFE3934048D17350424EE39BE10
:20566000D40BEC881E308840394FB7D411B7D41239C5102611C5802624F6D4115CC1072706
:2056800005F7D41120147FD411F6D4125CC104270CF7D412BED40BBDDE091CFE391A01399C
:2056A0008DC7BED40BBDDE0C2520BED40B8DB0BDDE03260AB6D4352737BDDE062732C54049
:2056C000260B34048DAB350424E039C6201A0139BED40BE6883B2B3D8120260F5CE7883BEF
:2056E000C17F260C200D8D0B24E6395D272720F61CFE393402C10126048620201086098D08
:20570000143502250F3402BED40BA6883B6F883B8D03350239BED40BE602C1021026FED14F
:20572000E68822C104260834028D213502250FBDD57E240AC604BED40BE788221CFE39BE50
:20574000D40B4F5FED8820ED88422027E688122622E6881727446F88178D3F252A8DE025B6
:20576000268DDC2522BED40BC602E78817EC88117EDC878D0EBED40BED8840BDD6A0241AA4
:205780007EDBC68D03EC8439BED40BE60386063D8ED41D3ABFD41B6D84398DE72605C60765
:2057A0001A0139BED40BED88136D88122603ED88116C881626036C88156D8817270BBDDCA7
:2057C0004825DDBED40BEC8813BDD62125D2BED40BEC884034068DB03506ED84260A6F029B
:2057E0006F036F046F05200810AE04313F10AF044FBED40B6C882126036C8820C600A78800
:205800004030015A26F8BED40BEC8820ED88421CFE395F3404C603200EBED415BFD413F693
:20582000D4133404F6D414BED40BE788413504E788407FD418C600E7882239BED40BE68830
:2058400022261DBDD60D2530BED40B7DD4182605DC44FDD4188610A78822EC881EED882F97
:20586000A68822A78831C6183414BDD5F63514A70430015A26F21CFE39BED40BA68831A73D
:205880008822C6183414A604BDD715351430015A26F27ED6A0BED40BA603A78823B6D417CC
:2058A0007DD41A2631A703BED415BFD4138C0005270C8D222337BED418BFD41320EFBED471
:2058C0000BA68823A7032A0EBDDDC525368D07231CBDDDB520F2BED40B7FD41ABDD54ABDF9
:2058E000D81FBDD83B2407C10827181A0139BED40BA604270C2A028D0FBDD55A26E41CFE08
:20590000398D051CFB1CFE39A68833260CEC882FED8832A68831A7883439BDD78826178D94
:20592000182515C60610BED40BBED41BA6A85D3121A7805A26F61CFE39BDD812BDD60D2596
:2059400008BED40BC610E7882239BDD7888DEA25F8C60610BED40BBED41BA680A7A85D3129
:20596000215A26F6BDD6A024E07EDBC6BED40B8602A702EC882FED881EBDD6422508BDD89F
:205980007924057EDBC6C60A39BDD4FA253EBDD8952539263CBED40B7DD41A2706A60F85F6
:2059A00020262ABDDCC6252BEC8811ED8840BDDA7AE6881727143404BDD60D3504250D5A20
:2059C00026F4BED40BC600E788221CFE39C6112002C6043404BDD50C35041A0139BED40BA3
:2059E0006D032A08BDDDC52403C61039BDD4FA25E2BDD537BDD91A25DABDD89525D5260418
:205A0000C60320CFBDDCC625CABED40BC60A6F0F30015A26F9BED40BEC88322727ED882FB6
:205A2000A68834A78831FCCC0EED8819B6CC10A7881BBDDDB5BDD96C25998D3E8604A788D1
:205A4000221CFE39BED40B6F88176C8812EC882FBDD621250DBDD7732508BDD6A02406BD49
:205A6000DBC67ED9D3BED40BEC881EED88328610A78834BDD94A25EA208ABED40BA684A785
:205A8000026F846F883B8600A78822398D28250E6F84441025FB76C604E788221CFE39BE9E
:205AA000D40BA6028183260B8603A702BDD6A0102501131CFE398DE7250DBED40BA60281BD
:205AC0000323F0C6121A01398DEC253181022708BED40B6F027ED50CA688122605BDDBACE7
:205AE00020198DC82517BED40B6D88172705BDDC9D250ABDD96C2505BDD94A24D339BDD9D0
:205B0000892528BDD60D252386032018BDD989251ABED40BA60F85802612EC8813BDD621DE
:205B200025098602BED40BA7021CFE39C60B1A01398D35BDD895252A2724BED40BC60BA657
:205B40008824A70430015A26F68D4D2515BED40BA60F858026D6856026098D0C2055C603F5
:205B60001A0139C60C1A0139BED40B860BB7D411A604E68835A78835E70430017AD411268F
:205B8000EFBED40BA60C260CC603A6883DA70C30015A26F6BED40B398DCEBDD8952507265A
:205BA00006BED40B1CFE39C6041A0139BED40B86FFA704BDD96CBED40B8600A70239ED8888
:205BC00040BDD6A02414C5402608C580270AC6102006C60B2002C60A1A0139BDD91A255E2B
:205BE0008DB8255ABED40BA60F8580265285602652BDD788BED41BEC02260FBED40BEC88B8
:205C0000112733BED41BED842014BED40BBDD621252CBED40BEC8811271C8DA22520BED4BA
:205C20000BEC8813BED41BED02BED40BEC8815BED41BE304ED04BDDBAC2503BDD94A39C640
:205C40000B2002C60C1A0139EC881E5CE1883C2303C6014C10A38813260EA6883781FF2797
:205C6000074CA788371CFE398D332530BED40BA6883A8B032616EC881E10A388112705C664
:205C8000171A0139EC8840ED88388604A7883AEC8813ED88358601A788371CFE39EC883828
:205CA000BDD62125F7BED40B1F12E6883A3A12C603A6A8353121A7884030015A26F3BDD60E
:205CC000A024D97EDBC6BDD812BDD60D2547BED40B4F5FED8820A68867A7883CC6006F88B8
:205CE0004030015A26F8BED40B1CFE39BED40BA68817271DEC88208300012A037EDDA2ED76
:205D00008820BDDAB6250E4624076F84A688172605C6121A01397FD411EC881110AE88200C
:205D2000276BBDDDA725EE4F5F6D022775EB028900BFD40FBED40B10A38820242CBED40FC3
:205D400030033402B6D4114CB7D4118154270881A83502274D20D23404BED40BEC88408D77
:205D600046253F3504350220C0A38820BED40FA6023404A0E04A1F894DA684EB01BED40BEB
:205D80002505E1883C2306E0883C4C20F5BDD6212514BED40BEC884210A388202714C61951
:205DA0002002C6181A0139BDD6212508BED40BC6443A1CFE39BED40BC60BA68824A70430DF
:205DC000015A26F639BED40BA6034C8104240FA7032605BDDE0F2003BDDE1225E839C6105E
:035DE0001A01396C
:145E0000F897F8DFF927F929F92BF930F955F958F997F99AD7
:20600000308D90BE1F101F8B979D3384318C5CEF81C61634041F20E3A1ED816AE426F6C6B3
:206020000DA6A0A7805A26F9318CD58E20FEACA12602ADA43584328D90178DC4860EB7F2BC
:2060400080108E80008E7000A6A4A7A0301F26F8108EF8008E0800A6A4A7A0301F26F886F6
:2060600080B7F34E4F1F8B3F0820F9015D0297029502930275028F00450230FFBB02960259
:206080008902A20290029F029C03AA02C702E202CF906B048D0132F23000050000000000F1
:2060A00000000039019901B601D001C8017A017801C5017E005A0182025B01D66A8D8FD01C
:2060C00017022AEE6A335F0DFB26111706AB505A2B0A11A3A126F8EF6A1602230FFB37065F
:2060E000C10B10220214EF6A58338CB8ECC56ECB41535349535430392D466C65780410DF8B
:20610000976D61260DAD9D8FCDAD9D8FCF308CE03F039EF6270D6F026F03CC01A6A701E70E
:20612000006F013F061706512A0C50D7FA5A2B06A630A7B120F7AE6A9F93863A3F0133E4B4
:20614000DF954F5FDD9BDD8FDD91C602340717045F308D058C812E275A308D04F4812F2744
:20616000528120231434026C5F812F274F17041627026A5E17043920E8800DA75D9EC4E677
:20618000802A109EEE5C27F710DE95308D015A3F0220905AE15F24033A20E4315DA65F80A1
:2061A00002A75E5AA680A1A226EE6A5E26F53AEC1E308B6D5D32C4AD1E16FF7A6D5E2BC847
:2061C0003088AEDC9B20ECFE0442055804430422044404A8044505AA044703DD044C04E875
:2061E000044D0418044E0508044F0515045004BA0452028F045304FD045404E1045604DAA0
:2062000004570473FFA6803406C6103D8D043506840F8B90198940196E9D8EC28DE78DE584
:20622000AF648620203DA66181342239109EC2EEA6EF64AF7E272EAFA6202A8D5D8D5F24BF
:20624000FA4D27F9817F27F5A7610D8F2617810D2604860A8DC20DF4260BA661308C0981C4
:206260000A270F8DB30C903B04308CFC860D8DA8860A8DA4A680810426F88D1E8D061FA9B3
:20628000E7E420E18D1824058118260253398D0A8D0C24FA811827F44F396E9D8E4CAD9D5E
:2062A0008E36847F394F502D048D420D8F26340D902B29306C9CF82523308CE93F02098E63
:2062C000308D8DD53F058D172537068E25339E91272F301F9F9127298DAA25251604021767
:2062E00001C4390F8F1702F63B3F072004E68D8DAC1F9BA163272C10DE97308CEC3F038D95
:20630000DE16FE218DE720F7CEF340A641442402A6433936108EF3401704AA8EF3481704BB
:20632000A43710393447DEF08D1B81102712D6F2810D2602D6F34FE7E48C8D096AE42AFA89
:2063400035C717FF55F6F341C50427F6A741B7F3433986116D6626014C3F010C8F3986142D
:206360003F014A3F010A8F8E61A8301F26FC39EE626D662754327D3F00815326FA3F008139
:20638000392722813126F26FE48D21E7618D1DE7628D19A66231CB8D13270C6D692B02E70E
:2063A000A4E1A027F235924C27CD20F98D12C6103D8D0D3404ABE01F89AB62A7626A6339AC
:2063C0003F001701D427F835F2DEF2AE643456CC0018D7F23F01C604DDF2EC68A36210836E
:2063E00000182502C6175CE7E4CB03E761308C333F035F30618D278D258D23AE628D1F6AE7
:20640000E426FAAF6253E76130618D14AE68AC6224C8308C113F03EC64DDF24F35D6EB8493
:2064200016FDE2530104533930333030303046430D0A043F06C6063F075A26FB5F1F9817BD
:20644000FDD03F073F075CC11025F23F06252F30643F05AE64C6103F045A26FB3F07AE6430
:20646000C610A6802B0481202402862E3F015A26F1AC622409AF64A6654826CF20B53F0615
:20648000398D234C8D21395043FF1341000A42000B58FF0D59FF0F55FF1153FF014343009A
:2064A000094450000C004F30E8103432318CD8ECA04D2F043F0120F7862D3F0130E56DE405
:2064C00026126D3F27033F058C3F04ECA05D26DF3F0635B28D402710810D271EE63F5A50DB
:2064E000583F075A26FB20E3A7E4DC9B6D3F2602A682ED84A6E4810D26D1308D8B53C6158C
:206500003502A7805A26F910EE88ECC615A68234025A26F920BC4F8C8620978E6E9D8BCC9C
:2065200034148D5C2718918E27F89E9E814D27169E93815027109EA08157270A35948D444C
:2065400027FC200AAE849F9B0D8E27F08D629E9B812B260E8D233402DC9B308B9F9B35023F
:2065600020EC812D2707814027DA5F20CF8D0A3402DC9B4050820020E18D9D273216FC082F
:206580000F9B0F9C8D2A8D112625C6103D860458099C099B4A26F820148130251281392F5B
:2065A0000A8141250A814622068007840F1A04393F00811827C7398D013B353034102619D0
:2065C0001701B6AE6C5A2B16A630ACA126F7813F260297FB0C8F1601061700BBED6C170183
:2065E0009800FA5A2BC9A6B4A730863FA7B120F38DC8357FADF13F0A20FC17009ADD9E9E84
:206600009E17FC01862D3F0117FF0B270A812C260E9F9E300120F1D69C8D47812C27E9819F
:2066200027260C8D8B8127270C1F898D3520F4812026069F9E3F0720C6810A2608860D3FCF
:20664000019F9E200A815E260A301E9F9E3F068D0720AC812F27F6399E9E341030E43F05B5
:2066600035909E9EE780E11F26039F9E393402863F3F0135828D20DDA0398D1BC4F01F0241
:20668000302F25048D1130AB343010A3622302EDE4AD9D8A4D35E017FE7E2609812F2205BB
:2066A000810EDC9B3916FAE08DED1F028DE96FE23426AD9D8A2EAD9D8A2C3401AD9D8A28BC
:2066C000350126E135B28D010133F133D427038DC68C4F5F344E20DA8DEFFF8DBADD913247
:2066E00062EEF80ADF99DEF6CC0701ED423B8DA7DDF23927058DA0DDF839306E9FF8398D20
:20670000961F018D9230013430A3E4EDE430611DA1E426023F04EEE4335FEF843F053F06B9
:206720003596272317FDF1272C812D263F17FDE827030FFA398D405A2B32ACA126F9AEA132
:20674000AF3C5A2AF90AFA8D2E27E930A13F055A26F93F06398D20C1082711A684E784E1D2
:20676000842609A7845A2B07ACA126F916FA19AFA46F310CFA20D09E9B318D8935D6FA3973
:206780006FE25F308C673F00815B26068610A7E43F00810D270C6D842BD2A18126F8EB1F86
:2067A00020EE308C711F988460AAE4A7E4C49F6D8427B9E18126F8E61FEAE4E7E430E43F45
:2067C000043F0635848EF3408610A7028693A7008634A7008670A70486CCA7018620A702AC
:2067E0008630A7028645A7028601A70E3941044205440648014801480148002C002D092DC9
:206800000153705930555058102B072B015080430052005D00FF108411001288138914868A
:206820001585168B1780188119821A83828C838D039F006E9D888F6E9D888D6E9D888B6E27
:0F6840009D88896E9D88876E9D88856E9D888353
:207800003440CEF340A6414424F8A643354039393939393939CEF3408680A74E16E81D3474
:20782000128EF3408610A7028693A7008634A7008670A70486CCA7018620A7028630A702CC
:207840008645A7028601A70E3512393442CEF340A641443542393444CEF340E641C5042716
:20786000FAC641A7433544393444CEF340A6414424F8A6433402E641C50427FAA743354616
:207880003900000000E0000000E0000000E0000000E0000000E0003422B6F896108EF2C065
:2078A000850235022604108EF300A724BDF9CEE723BDF9CEB6F8968401A725BDF9CEC62073
:2078C000E727BDF9C08600E620E780BDF9C04C26F6E620BDF9C0A627850826F535203934A0
:2078E00022B6F896108EF2C0850235022604108EF300A724BDF9CEE723BDF9CEB6F89684B4
:2079000001A725BDF9CEC620E727BDF9C08600E620E780BDF9C04C26F6E620BDF9C0A62792
:20792000850826F535203912391239A603B7F896A60386018502260CB6F30785C026111A5E
:20794000FF1C0139B6F2C785C026051AFF1C01391AFF1C043920D9398EF3008D068EF2C08C
:207960008D0139C604E707BDF9CEC601E701BDF9CEC6E0E706BDF9CEC601E702BDF9CEC6C0
:20798000EFE707BDF9CEE706BDF9CEC601E702BDF9CEC6EFE7073920BF393402B6F8968EE5
:2079A000F2C08502350226038EF300A704BDF9CEE703BDF9CEB6F8968401A705BDF9CE39DE
:2079C0008600E6074C85002704C58026F5398600E6074C85002704C5C027F539F6F307C5A1
:0B79E0008026F9F6F307C54027F939AF
:107FF000E833E837E83BE83FE843E847E84BE0365A
:04000005FFFF800079
:00000001FF
