:20C000008EF2308601A70E7FC551BDC4C0BDC4C9BDC522BDC5338604A70D8604A70F8EC3EC
:20C02000F4BFFFF88EC1233F038EF2307EC15E3F202D204C6973742074686520636F6D6DE0
:20C04000616E647320617661696C61626C652E0D0A44202D20446973706C6179207468654C
:20C060002063757272656E7420646174652E0D0A53202D205365742074696D652028484807
:20C08000204D4D205353292E0D0A45202D20536574206461746520284444204D4D205959BA
:20C0A000292E0D0A54202D20446973706C6179207468652063757272656E742074696D6528
:20C0C0002E0D0A49202D20546F67676C652074686520525443277320312D6D696E757465EF
:20C0E00020696E7465727275707420287072696E74732048483A4D4D2065616368206D6920
:20C100006E757465292E0D0A51202D2051756974207468652070726F6772616D2E0D0A04D2
:20C120000D0A043E0458585858585858580D04456E7465722074696D652061732036206832
:20C140006578206469676974732C204848204D4D2053533A200458585858580D0A048EC182
:20C16000203F038EC1233F03B6C55126043F0020141CEFB6F341840127F9B6F343B7C552EC
:20C180003F01B6C552813F2605BDC1C420D084DF81442605BDC1CA20C581532605BDC22651
:20C1A00020BC81452605BDC28820B381542605BDC31320AA81492605BDC39320A1815126BA
:20C1C0009D7EC43C8EC02F3F03398EF230C601E70DE60DC5022709C600E70DBDC52D20EA84
:20C1E000108EC125E607C40FCB30E7A0E606C40FCB30E7A0C62FE7A0E609C40FCB30E7A078
:20C20000E608C40FCB30E7A0C62FE7A0E60BC40FCB30E7A0E60AC40FCB30E7A4C600E70D16
:20C220008EC1253F03398EC12F3F03BDC449F7C558BDC449F7C557BDC449F7C556BDC449EE
:20C24000F7C555BDC449F7C554BDC449F7C5538EF230C601E70DE60DC5022709C600E70D0B
:20C26000BDC52D20EDF6C558E705F6C557E704F6C556E703F6C555E702F6C554E701F6C560
:20C2800053E700C600E70D398EC2EA3F03BDC449F7C30DBDC449F7C30EBDC449F7C30FBD82
:20C2A000C449F7C310BDC449F7C311BDC449F7C3128EF230C601E70DE60DC5022709C60061
:20C2C000E70DBDC52D20EDF6C30DE707F6C30EE706F6C30FE709F6C310E708F6C311E70B1A
:20C2E000F6C312E70AC600E70D39456E7465722064617465206173203620646967697473E5
:20C300002C204444204D4D2059593A20040000000000008EF230C601E70DE60DC50227090A
:20C32000C600E70DBDC52D20EA108EC125E600C40FCB30F7C553E601C40FCB30F7C554E698
:20C3400002C40FCB30F7C555E603C40FCB30F7C556E604C40FCB30F7C557E605C40FCB30AF
:20C36000F7C558C600E70DF6C558E7A0F6C557E7A0C63AE7A0F6C556E7A0F6C555E7A0C640
:20C380003AE7A0F6C554E7A0F6C553E7A48EC1253F03398EF2304FA70DB6C551260EC60A3B
:20C3A000E70E8601B7C5518EC3B9200AC601E70E7FC5518EC3E53F0339496E746572727515
:20C3C0007074204F4E202D2074696D65206973207072696E7465642065616368206D696E79
:20C3E0007574652E04496E74657272757074204F46462E048EF230C605E70DE60DC5022773
:20C4000009C604E70DBDC52D20EA108EC156E605C40FCB30E7A0E604C40FCB30E7A0C63A68
:20C42000E7A0E603C40FCB30E7A0E602C40FCB30E7A4C600E70D8EC1563F033B8601B7F2EA
:20C440003E8EC1203F037EE03C3F0081302603C6003981312603C6013981322603C6023983
:20C4600081332603C6033981342603C6043981352603C6053981362603C606398137260353
:20C48000C6073981382603C6083981392603C6093984DF81412603C60A3981422603C60BAE
:20C4A0003981432603C60C3981442603C60D3981452603C60E3981462603C60F39C6F03968
:20C4C0008604A70F8604A70D398640B7C4EDC601E70DE60DC5022714C600E70DBDC52D7AE4
:20C4E000C4ED26EA8EC4EE3F038EF2303900525443204255535920737475636B207365740E
:20C500002028434F4E5444206269743129202D20535445505F4220676176652075702E0D55
:20C520000A048607A70F8D058607A70F3986FF4A26FD398600A700A701A702A703A704A7F7
:19C5400005A706A707A708A709A70AA70BA70C39000000000000000000D4
:00000001FF
