S11320008EF2308601A70E7F2551BD24C0BD24C9A0
S1132010BD2522BD25338604A70D8604A70F8E2374
S1132020F4BFFFF88E21233F038EF2307E215E3F02
S1132030202D204C6973742074686520636F6D6D66
S1132040616E647320617661696C61626C652E0DEA
S11320500A44202D20446973706C6179207468658A
S11320602063757272656E7420646174652E0D0A46
S113207053202D205365742074696D6520284848C9
S1132080204D4D205353292E0D0A45202D205365F4
S113209074206461746520284444204D4D205959AE
S11320A0292E0D0A54202D20446973706C61792007
S11320B07468652063757272656E742074696D65E9
S11320C02E0D0A49202D20546F67676C65207468B3
S11320D06520525443277320312D6D696E757465E4
S11320E020696E7465727275707420287072696EDE
S11320F074732048483A4D4D2065616368206D69CA
S11321006E757465292E0D0A51202D205175697440
S1132110207468652070726F6772616D2E0D0A04F9
S11321200D0A043E0458585858585858580D044538
S11321306E7465722074696D652061732036206841
S11321406578206469676974732C204848204D4D74
S11321502053533A200458585858580D0A048E21D5
S1132160203F038E21233F03B6255126043F002040
S1132170141CEFB6F341840127F9B6F343B7255293
S11321803F01B62552813F2605BD21C420D084DFFE
S113219081442605BD21CA20C581532605BD2226BA
S11321A020BC81452605BD228820B381542605BD67
S11321B0231320AA81492605BD239320A1815126FA
S11321C09D7E243C8E202F3F03398EF230C601E7DA
S11321D00DE60DC5022709C600E70DBD252D20EA31
S11321E0108E2125E607C40FCB30E7A0E606C40F06
S11321F0CB30E7A0C62FE7A0E609C40FCB30E7A099
S1132200E608C40FCB30E7A0C62FE7A0E60BC40F47
S1132210CB30E7A0E60AC40FCB30E7A4C600E70D35
S11322208E21253F03398E212F3F03BD2449F725F5
S113223058BD2449F72557BD2449F72556BD2449DF
S1132240F72555BD2449F72554BD2449F725538E58
S1132250F230C601E70DE60DC5022709C600E70DF9
S1132260BD252D20EDF62558E705F62557E704F69C
S11322702556E703F62555E702F62554E701F6252A
S113228053E700C600E70D398E22EA3F03BD244917
S1132290F7230DBD2449F7230EBD2449F7230FBDB1
S11322A02449F72310BD2449F72311BD2449F723FA
S11322B0128EF230C601E70DE60DC5022709C600ED
S11322C0E70DBD252D20EDF6230DE707F6230EE7D8
S11322D006F6230FE709F62310E708F62311E70BA8
S11322E0F62312E70AC600E70D39456E74657220BD
S11322F0646174652061732036206469676974734E
S11323002C204444204D4D2059593A20040000000B
S11323100000008EF230C601E70DE60DC502270964
S1132320C600E70DBD252D20EA108E2125E600C448
S11323300FCB30F72553E601C40FCB30F72554E615
S113234002C40FCB30F72555E603C40FCB30F72575
S113235056E604C40FCB30F72557E605C40FCB303F
S1132360F72558C600E70DF62558E7A0F62557E7E8
S1132370A0C63AE7A0F62556E7A0F62555E7A0C67D
S11323803AE7A0F62554E7A0F62553E7A48E2125C5
S11323903F03398EF2304FA70DB62551260EC60ADB
S11323A0E70E8601B725518E23B9200AC601E70E30
S11323B07F25518E23E53F0339496E74657272752A
S11323C07074204F4E202D2074696D652069732030
S11323D07072696E7465642065616368206D696EEE
S11323E07574652E04496E74657272757074204F2D
S11323F046462E048EF230C605E70DE60DC50227CB
S113240009C604E70DBD252D20EA108E2156E605E8
S1132410C40FCB30E7A0E604C40FCB30E7A0C63A24
S1132420E7A0E603C40FCB30E7A0E602C40FCB302D
S1132430E7A4C600E70D8E21563F033B8601B7F2A1
S11324403E8E21203F037EE03C3F0081302603C6C0
S1132450003981312603C6013981322603C6023987
S113246081332603C6033981342603C604398135F2
S11324702603C6053981362603C606398137260365
S1132480C6073981382603C6083981392603C609A7
S11324903984DF81412603C60A3981422603C60BEB
S11324A03981432603C60C3981442603C60D39817C
S11324B0452603C60E3981462603C60F39C6F039B0
S11324C08604A70F8604A70D398640B724EDC601FC
S11324D0E70DE60DC5022714C600E70DBD252D7ACC
S11324E024ED26EA8E24EE3F038EF2303900525456
S11324F043204255535920737475636B207365747C
S11325002028434F4E5444206269743129202D20E1
S1132510535445505F4220676176652075702E0DD7
S11325200A048607A70F8D058607A70F3986FF4A79
S113253026FD398600A700A701A702A703A704A7C1
S113254005A706A707A708A709A70AA70BA70C3979
S10C25500000000000000000007E
S9030000FC
