:204000008EF2308601A70E7FC551BDC4C0BDC4C9BDC522BDC5338604A70D8604A70F8EC36C
:20402000F4BFFFF88EC1233F038EF2307EC15E3F202D204C6973742074686520636F6D6D60
:20404000616E647320617661696C61626C652E0D0A44202D20446973706C617920746865CC
:204060002063757272656E7420646174652E0D0A53202D205365742074696D652028484887
:20408000204D4D205353292E0D0A45202D20536574206461746520284444204D4D2059593A
:2040A000292E0D0A54202D20446973706C6179207468652063757272656E742074696D65A8
:2040C0002E0D0A49202D20546F67676C652074686520525443277320312D6D696E7574656F
:2040E00020696E7465727275707420287072696E74732048483A4D4D2065616368206D69A0
:204100006E757465292E0D0A51202D2051756974207468652070726F6772616D2E0D0A0452
:204120000D0A043E0458585858585858580D04456E7465722074696D6520617320362068B2
:204140006578206469676974732C204848204D4D2053533A200458585858580D0A048EC102
:20416000203F038EC1233F03B6C55126043F0020141CEFB6F341840127F9B6F343B7C5526C
:204180003F01B6C552813F2605BDC1C420D084DF81442605BDC1CA20C581532605BDC226D1
:2041A00020BC81452605BDC28820B381542605BDC31320AA81492605BDC39320A18151263A
:2041C0009D7EC43C8EC02F3F03398EF230C601E70DE60DC5022709C600E70DBDC52D20EA04
:2041E000108EC125E607C40FCB30E7A0E606C40FCB30E7A0C62FE7A0E609C40FCB30E7A0F8
:20420000E608C40FCB30E7A0C62FE7A0E60BC40FCB30E7A0E60AC40FCB30E7A4C600E70D96
:204220008EC1253F03398EC12F3F03BDC449F7C558BDC449F7C557BDC449F7C556BDC4496E
:20424000F7C555BDC449F7C554BDC449F7C5538EF230C601E70DE60DC5022709C600E70D8B
:20426000BDC52D20EDF6C558E705F6C557E704F6C556E703F6C555E702F6C554E701F6C5E0
:2042800053E700C600E70D398EC2EA3F03BDC449F7C30DBDC449F7C30EBDC449F7C30FBD02
:2042A000C449F7C310BDC449F7C311BDC449F7C3128EF230C601E70DE60DC5022709C600E1
:2042C000E70DBDC52D20EDF6C30DE707F6C30EE706F6C30FE709F6C310E708F6C311E70B9A
:2042E000F6C312E70AC600E70D39456E746572206461746520617320362064696769747365
:204300002C204444204D4D2059593A20040000000000008EF230C601E70DE60DC50227098A
:20432000C600E70DBDC52D20EA108EC125E600C40FCB30F7C553E601C40FCB30F7C554E618
:2043400002C40FCB30F7C555E603C40FCB30F7C556E604C40FCB30F7C557E605C40FCB302F
:20436000F7C558C600E70DF6C558E7A0F6C557E7A0C63AE7A0F6C556E7A0F6C555E7A0C6C0
:204380003AE7A0F6C554E7A0F6C553E7A48EC1253F03398EF2304FA70DB6C551260EC60ABB
:2043A000E70E8601B7C5518EC3B9200AC601E70E7FC5518EC3E53F0339496E746572727595
:2043C0007074204F4E202D2074696D65206973207072696E7465642065616368206D696EF9
:2043E0007574652E04496E74657272757074204F46462E048EF230C605E70DE60DC50227F3
:2044000009C604E70DBDC52D20EA108EC156E605C40FCB30E7A0E604C40FCB30E7A0C63AE8
:20442000E7A0E603C40FCB30E7A0E602C40FCB30E7A4C600E70D8EC1563F033B8601B7F26A
:204440003E8EC1203F037EE03C3F0081302603C6003981312603C6013981322603C6023903
:2044600081332603C6033981342603C6043981352603C6053981362603C6063981372603D3
:20448000C6073981382603C6083981392603C6093984DF81412603C60A3981422603C60B2E
:2044A0003981432603C60C3981442603C60D3981452603C60E3981462603C60F39C6F039E8
:2044C0008604A70F8604A70D398640B7C4EDC601E70DE60DC5022714C600E70DBDC52D7A64
:2044E000C4ED26EA8EC4EE3F038EF2303900525443204255535920737475636B207365748E
:204500002028434F4E5444206269743129202D20535445505F4220676176652075702E0DD5
:204520000A048607A70F8D058607A70F3986FF4A26FD398600A700A701A702A703A704A777
:2045400005A706A707A708A709A70AA70BA70C39000000000000000000FFFFFFFFFFFFFF54
:204700007EC7217EC7037EC7477EC7857EC7957EC71F0C00000000C810C810000000003B60
:20472000121A10BECC3110EF027DCC3426118ECCFC7CCC346D842707BFCC3110EE023B8E57
:20474000CCF87FCC3420F11A107DC71B2729BEC719A6843402EC018ECAC0ED88403502A796
:20476000036F848601A7026F88226F883B7DC71E2729113F1220F61CEFAD9FD3ED7FCCFC40
:20478000113F1220F41A107DCC302705113F1220F47CCC30397FCC301CEF397DC71D262740
:2047A0008ECAC0BDD406261F7DC71C270F7FC71C810A270F3402860A8D3C3502810D2603CF
:2047C000B7C71C8D3120D4860D8D2B860A8D27B6C7128D227FC71DBEC7196D0327056A03B6
:2047E0007EC74730048CC84026038EC810BFC7197AC71B7EC747BDCCD82B05113F1220F646
:204800007ECCE4FFFFFFFFFFFFFFFFFFFFFFFFFFFFFFFFFFFFFFFFFFFFFFFFFFFFFFFFFF87
:20484000FF000000535441525455500054585400FFFFFFFFFFFFFFFFFFFFFFFFFFFFFFFF36
:204A00008639B7D3FDAD9FD3F5BED3FBBFCD0ABFCD0DBED3F9BFCD10BFCD13BED3F7BFCDA8
:204A20004F8E00A0C6B9A684E78412E184260BA784308904008CC0A026EC3089FF5FBFCCB5
:204A40002B8ECD03BFCC168ECAC7BDCE82BDCEB47EFD00121212BDCE2C8D5B25F3B7CC0EC8
:204A60008D5425ECB7CC0F8D4D25E5B7CC10BDCEB48EC8408601A784BDD4062708A601BD8A
:204A8000D1FF7ECD6B8EC080BFCC148EC840BDD406270534307ED2D6BECC14A780810D26C7
:204AA000E78EC840BDD1F38EC080BFCC148ECD6BBFCC437ED32DBDD174250BB6CC1C5D2725
:204AC000031CFE391A0139464C455820392E31044441544520284D4D2C44442C5959293F47
:204AE0002004FFFFFFFFFFFFFFFFFFFFFFFFFFFFFFFFFFFFFFFFFFFFFFFFFFFFFFFFFFFFB0
:204C000008183A000004000000FF1B0000000000000000000000000000000000000000001C
:204C2000000000000000000000000000000000010000000000FFFFFFFFFFFFFFFFFFFFFF7E
:204C4000FFFFFFFFFFFFFFFFFF00FFFFFFFF2B2B2B043F3F3F04574841543F0443414E27AB
:204C600054205452414E53464552044E4F5420464F554E44044449534B204552524F5220D1
:204C80002304445249564553204E4F542052454144590447455400D20E4D4F4E00D34A00AF
:204CA000271003E80064000AFFFFFFFFFFFFFFFFFFFFFFFFFFFFFFFFFFFFFFFFFFFFFFFF7C
:204CC00039FFFFFFFFFFFFFFFFFFFFFFFFFFFFFFFFFFFFFFFFFFFFFF39FFFFFFFFFFFFFF80
:204CE000FFFFFFFF39FFFFFFFFFFFFFFFFFFFFFFFFFFFFFFFFFFFFFF010000000000000091
:204D00007ECD577ECD6B7ECDB27ECD097ECD0C7ECD0F7ECD127ECEFA7ECF407ECE2C7ECE45
:204D2000827ECFED7ECEB47ED00E7ECDEB7ED0367ED1A17ED0EA7ED3487ECF857ECFD47E6F
:204D4000D27E7ED12E7ECFD07ED1747ED3287ECD4E7ECE067ECE0610CEC07F7FCC11AD9F2B
:204D6000D3F5BDD4007FCC28BDD3FD10CEC07F8ECD03BFCC168EC700AF9FD3E9BED3E7AF38
:204D80009FD3EB8ECCF8BFCC317FCC347FCC4C8D5AB6CC11B1CC0226057CCC1520147DCC94
:204DA0002810260595BDD40326B18ECC4EBDCE828D7ABDD0D3810D27E58EC8407CCC0DBD32
:204DC000D03625168ECC938D3E2709BECC1227078D3526036E9801BDD22D8ECC568615B730
:204DE000CC20BDCE827FCC117ECD6BBECD13BFCD10BECD0DBFCD0A7FCC237FCC227FCC21F9
:204E00007FCC267FCC2439108EC844A6A0815F23028020A18026086D8426F06DA4270C6DDD
:204E20008026FC30026D8426DE1CFB398EC080BFCC14BDCEFAB1CC01271DB1CC00271F8161
:204E40000D270D810A2732811F23E78CC0FF27E2A780810D26DC398ECC528D2620CE8CC0A6
:204E60008027F4301FB6CC07810826088620BDCF65B6CC07BDCF6520B9860DBDCF40862019
:204E800020C98D30A6848104276DBDCF40300120F3BDCD4E2763BDCD09B1CC0A265B7FCCD1
:204EA0001ABDCD09B1CC0A2750810D26F47FCC116E9FCC167DCC2126278DD6B6CC0327206E
:204EC000B1CC1A22187FCC1A7DCC0927028DCF3404F6CC0827058D085A26FB35047CCC1AEC
:204EE000860D8D5C860A8D583404F6CC0527064F8D4E5A26FA35041CFE397DCC23261A7D3C
:204F0000CC2627108D1A7DCC2F27117DCC24270C8D532008BDCD092003BDCD0C7FCC1A397F
:204F2000BFCC47BECC262006BFCC47BECC24BDD4062604BECC47397FCC24BDD27E7ECD03B4
:204F40007DCC212620811F22057FCC2920177CCC293402B6CC04270BB1CC292406BDCEB4C1
:204F60007CCC29350234027DCC2226137DCC2427048DB5200D7DCC262608BDCD0F2003BD92
:204F8000CD123502397FCC4AF7CC1D8604B7CC4DEC848ECCA08D0C30027ACC4D26F71F9857
:204FA0004D203D7FCC4B10A3842507A3847CCC4B20F43402B6CC4B26107DCC4A260B7DCC3A
:204FC0001D270B86208D2320057CCC4A8D1235828D023001A6848D04A68420044444444446
:204FE000840F8B30813923028B077ECF4081302514813923168141250C815A230E81612582
:2050000004817A23061A01B7CC11391CFE393410BECC14B6CC18B7CC19A680B7CC18810DC6
:205020002710B1CC02270BBFCC1481202604A18427E78DB935908615A70186FFA7036F04FB
:205040006F0CBDD0D38608B7CC4B8D34252E260F8D2E25282609BCCC3F276B8D232367BE48
:20506000CC3F6D0427606D032A0F7DCC0D2705B6CC0B2003B6CC0CA7037FCC0DBECC3F39C0
:205080008D8C254281392215BECC3F6D032A378403A703BDD00E242E812E1CFE39F6CC4BD8
:2050A0002B243404C005F7CC4B3504816025028020A70430015ABDD00E2408812D2704815E
:2050C0005F26065D26E51A01395D27CC6F0430015A20F6BFCC3FBECC14A684812026043098
:2050E0000120F6BFCC14BECC3F393430E60C2618108ED10A810B2210C6033D31A5C603A6E2
:20510000A0A70C30015A26F735B042494E545854434D4442415353595342414B5343524433
:2051200041544241434449525052544F5554BDD21DBDD00E25228D2625183404C60478CC83
:205140001C79CC1B5A26F73504BBCC1CB7CC1C5C20DFBDD00E24FB39BECC1B1CFE398047D4
:205160002A0F8B062A048B072A078B0A2B031CFE391A0139BDD21DBDD00E25DC813922D214
:20518000840F34043402FCCC1B584958495849F3CC1BF3CC1BEBE08900FDCC1B35045C20A7
:2051A000D67FCC1D8D3D81022715811626F68D33B7CC1E8D2EB7CC1F8601B7CC1D20E58DFE
:2051C000221F898D1E1E89F3CC1BFDCC3D8D141F894D27D08D0DBECC3DA780BFCC3D5A2676
:2051E000F320C18EC840BDD4062711A6018108260E32628604A784BDD406260D1CFE39B7F5
:20520000CC20810426031A01398D737ECDE586008D35250F8D077CCC4C8D8620F14F5FFDFD
:20522000CC1B39F6CC4C1027FBB07ECD0386028D228DEABDD1A1F6CC1D27046E9FCC1E8EA4
:20524000CC5C86817ECDDF34028EC840BDD0363502251A8EC840BDD0EA8EC8408601A7849B
:20526000BDD1E3102500BB86FFA7883B39B6CC11810D2707B1CC021026FB5F1A013934308F
:20528000A601B7CC202763BDCDEB10BECC2D260881102758108ED3608EC8406D0227098634
:2052A00004A784BDD406262E8EC838C60B8D6E8EC840B6CC0BA7038601A784BDD406261628
:2052C000B6CC204A47474C6F8820A788218615A784BDD406271E8ECC75BDCE82BECC3FB6A4
:2052E000CC20A7016F845FBDCF8535B08ECC82BDCE8220F6BDCEB48EC840B6CC204A84038B
:20530000C63F3DCB04E78822BDD40626C9BDCF40810D26F48604A784BDD40620CD34307ED6
:20532000D0FF8ECC6B7ECDE23506FDCC4310FFCC457FCC207CCC287ECDB97FCC2810FECC19
:2053400045F6CC206E9FCC433A397DCCFC26046E9FD3F38EC840861BA701BDD27E7ECD6BB3
:205360004552524F52530000535953FFFFFFFFFFFFFFFFFFFFFFFFFFFFFFFFFFFFFFFFFF66
:2053E000FFFFFFFFFFF803F814F815F816F817F818F819F81AF824F850F85CF86C7ECA00EA
:205400007ED4367ED4597ED47B204449534B204F5045524154494E472053595354454D2053
:20542000434F50595249474854202843292031393830204259FFBDDE158ED409C60A8D11CA
:205440008E0005BFD413BFD4157FD41A8ED41BC61A6F805A26FB7EC70CBDC709BED4092797
:20546000EB3088E4BFD40B3420BDDAC8352024ECBED40B6F02BDC70CC6FF397DCCFC2703E4
:20548000BDC7093424BFD40B6F01E6842622E602271AC1022711BDD5B5BED40B25267DCCCB
:2054A000FC26235F352439BDD6D020EDC6122014C1162304C601200C5A588ED4CEAD95BE67
:2054C000D40B2402E701BDC70C6D01352439D989D9DDDAFEDAC8D5E3D81FD83BD879D64292
:2054E000D6A0D96CDBDBDB31D69ADA8CD812D570D591DB0CDDC5DD02DCEC8D202605C602F4
:205500001A0139ED84AE846F846F01398D0E2705C60D1A0139EC94ED841CFE39FCD40BC328
:20552000001C8ED40910AE8426031CFB3910A384260139AE8420EEBED40B4FC6008D02C64B
:205540002FA7881130015A26F839BED40BC60BA604A7882430015A26F639BED40BC60BA69B
:20556000043402A68824A1E0260530015A26F039BED40BE602542479E688237ED601BED42B
:205580000BE688226C88223AA788405C261F1A0139BED40BE602C403C1032655CA80E702FE
:2055A000E60FC580260AE688233AA788401CFE39C60B1A0139A6883B2B3C27076A883B861E
:2055C00020201D8D31251B8118221527F68109260C8D23250DBED40BA7883B20D84D27E38F
:2055E0001CFE39BDDAB6250985012705A7847ED9A3C6121A0139BED40BE68822270A6C8888
:20560000223AA688401CFE398D0324EA39BED40BEC88406C882126036C8820108300002739
:205620001CED881E34028604A7882235028D132410C5802704C6102006C6092002C6081A5A
:2056400001398D25BED40BBDDE0C25128D11BDDE0026031CFE3934048D17350424EE39BE10
:20566000D40BEC881E308840394FB7D411B7D41239C5102611C5802624F6D4115CC1072706
:2056800005F7D41120147FD411F6D4125CC104270CF7D412BED40BBDDE091CFE391A01399C
:2056A0008DC7BED40BBDDE0C2520BED40B8DB0BDDE03260AB6D4352737BDDE062732C54049
:2056C000260B34048DAB350424E039C6201A0139BED40BE6883B2B3D8120260F5CE7883BEF
:2056E000C17F260C200D8D0B24E6395D272720F61CFE393402C10126048620201086098D08
:20570000143502250F3402BED40BA6883B6F883B8D03350239BED40BE602C1021026FED14F
:20572000E68822C104260834028D213502250FBDD57E240AC604BED40BE788221CFE39BE50
:20574000D40B4F5FED8820ED88422027E688122622E6881727446F88178D3F252A8DE025B6
:20576000268DDC2522BED40BC602E78817EC88117EDC878D0EBED40BED8840BDD6A0241AA4
:205780007EDBC68D03EC8439BED40BE60386063D8ED41D3ABFD41B6D84398DE72605C60765
:2057A0001A0139BED40BED88136D88122603ED88116C881626036C88156D8817270BBDDCA7
:2057C0004825DDBED40BEC8813BDD62125D2BED40BEC884034068DB03506ED84260A6F029B
:2057E0006F036F046F05200810AE04313F10AF044FBED40B6C882126036C8820C600A78800
:205800004030015A26F8BED40BEC8820ED88421CFE395F3404C603200EBED415BFD413F693
:20582000D4133404F6D414BED40BE788413504E788407FD418C600E7882239BED40BE68830
:2058400022261DBDD60D2530BED40B7DD4182605DC44FDD4188610A78822EC881EED882F97
:20586000A68822A78831C6183414BDD5F63514A70430015A26F21CFE39BED40BA68831A73D
:205880008822C6183414A604BDD715351430015A26F27ED6A0BED40BA603A78823B6D417CC
:2058A0007DD41A2631A703BED415BFD4138C0005270C8D222337BED418BFD41320EFBED471
:2058C0000BA68823A7032A0EBDDDC525368D07231CBDDDB520F2BED40B7FD41ABDD54ABDF9
:2058E000D81FBDD83B2407C10827181A0139BED40BA604270C2A028D0FBDD55A26E41CFE08
:20590000398D051CFB1CFE39A68833260CEC882FED8832A68831A7883439BDD78826178D94
:20592000182515C60610BED40BBED41BA6A85D3121A7805A26F61CFE39BDD812BDD60D2596
:2059400008BED40BC610E7882239BDD7888DEA25F8C60610BED40BBED41BA680A7A85D3129
:20596000215A26F6BDD6A024E07EDBC6BED40B8602A702EC882FED881EBDD6422508BDD89F
:205980007924057EDBC6C60A39BDD4FA253EBDD8952539263CBED40B7DD41A2706A60F85F6
:2059A00020262ABDDCC6252BEC8811ED8840BDDA7AE6881727143404BDD60D3504250D5A20
:2059C00026F4BED40BC600E788221CFE39C6112002C6043404BDD50C35041A0139BED40BA3
:2059E0006D032A08BDDDC52403C61039BDD4FA25E2BDD537BDD91A25DABDD89525D5260418
:205A0000C60320CFBDDCC625CABED40BC60A6F0F30015A26F9BED40BEC88322727ED882FB6
:205A2000A68834A78831FCCC0EED8819B6CC10A7881BBDDDB5BDD96C25998D3E8604A788D1
:205A4000221CFE39BED40B6F88176C8812EC882FBDD621250DBDD7732508BDD6A02406BD49
:205A6000DBC67ED9D3BED40BEC881EED88328610A78834BDD94A25EA208ABED40BA684A785
:205A8000026F846F883B8600A78822398D28250E6F84441025FB76C604E788221CFE39BE9E
:205AA000D40BA6028183260B8603A702BDD6A0102501131CFE398DE7250DBED40BA60281BD
:205AC0000323F0C6121A01398DEC253181022708BED40B6F027ED50CA688122605BDDBACE7
:205AE00020198DC82517BED40B6D88172705BDDC9D250ABDD96C2505BDD94A24D339BDD9D0
:205B0000892528BDD60D252386032018BDD989251ABED40BA60F85802612EC8813BDD621DE
:205B200025098602BED40BA7021CFE39C60B1A01398D35BDD895252A2724BED40BC60BA657
:205B40008824A70430015A26F68D4D2515BED40BA60F858026D6856026098D0C2055C603F5
:205B60001A0139C60C1A0139BED40B860BB7D411A604E68835A78835E70430017AD411268F
:205B8000EFBED40BA60C260CC603A6883DA70C30015A26F6BED40B398DCEBDD8952507265A
:205BA00006BED40B1CFE39C6041A0139BED40B86FFA704BDD96CBED40B8600A70239ED8888
:205BC00040BDD6A02414C5402608C580270AC6102006C60B2002C60A1A0139BDD91A255E2B
:205BE0008DB8255ABED40BA60F8580265285602652BDD788BED41BEC02260FBED40BEC88B8
:205C0000112733BED41BED842014BED40BBDD621252CBED40BEC8811271C8DA22520BED4BA
:205C20000BEC8813BED41BED02BED40BEC8815BED41BE304ED04BDDBAC2503BDD94A39C640
:205C40000B2002C60C1A0139EC881E5CE1883C2303C6014C10A38813260EA6883781FF2797
:205C6000074CA788371CFE398D332530BED40BA6883A8B032616EC881E10A388112705C664
:205C8000171A0139EC8840ED88388604A7883AEC8813ED88358601A788371CFE39EC883828
:205CA000BDD62125F7BED40B1F12E6883A3A12C603A6A8353121A7884030015A26F3BDD60E
:205CC000A024D97EDBC6BDD812BDD60D2547BED40B4F5FED8820A68867A7883CC6006F88B8
:205CE0004030015A26F8BED40B1CFE39BED40BA68817271DEC88208300012A037EDDA2ED76
:205D00008820BDDAB6250E4624076F84A688172605C6121A01397FD411EC881110AE88200C
:205D2000276BBDDDA725EE4F5F6D022775EB028900BFD40FBED40B10A38820242CBED40FC3
:205D400030033402B6D4114CB7D4118154270881A83502274D20D23404BED40BEC88408D77
:205D600046253F3504350220C0A38820BED40FA6023404A0E04A1F894DA684EB01BED40BEB
:205D80002505E1883C2306E0883C4C20F5BDD6212514BED40BEC884210A388202714C61951
:205DA0002002C6181A0139BDD6212508BED40BC6443A1CFE39BED40BC60BA68824A70430DF
:205DC000015A26F639BED40BA6034C8104240FA7032605BDDE0F2003BDDE1225E839C6105E
:205DE0001A0139FFFFFFFFFFFFFFFFFFFFFFFFFFFFFFFFFFFFFFFFFFFFFFFFFFFFFFFFFF6C
:205E00007EF8867EF8DD7EF9367EF9387EF94C7EF96C7EF9897EF98B7EF9E17EF9E2FFFF80
:20600000308D90BE1F101F8B979D3384318C61EF81C61634041F20E3A1ED816AE426F6C6AE
:206020000DA6A0A7805A26F9318CD58E20FEACA12602ADA43584328D90178DC4860EB7F2BC
:2060400080108E80008E7000A6A4A7A0301F26F8108EF8008E0800A6A4A7A0301F26F886F6
:2060600080B7F34E8601B7F23E4F1F8B3F0820F9015D02A702A502A30285029F00450240DF
:20608000FFB602A8029902B402A202B102AE03BA02D702F202DF9066049D0132F2300005ED
:2060A00000000000000000003901A901C601E001D8018A018801D5018E005A0192026B01A8
:2060C000E66A8D8FCB17023AEE6A335F0DFB26111706DB505A2B0A11A3A126F8EF6A160252
:2060E000330FFB3706C10B10220224EF6A58338CB8ECC56ECB41535349535430392D466CD1
:2061000065780410DF976D61260DAD9D8FC8AD9D8FCA308CE03F039EF6270D6F026F03CC7E
:2061200001A6A701E7006F013F061706812A0C50D7FA5A2B06A630A7B120F7AE6A9F9386DF
:206140003A3F0133E4DF954F5FDD9BDD8FDD91C602340717046F308D05BC812E275A308D42
:206160000524812F27528120231434026C5F812F274F17042627026A5E17044920E8800DA3
:20618000A75D9EC4E6802A109EEE5C27F710DE95308D016A3F0220905AE15F24033A20E458
:2061A000315DA65F8002A75E5AA680A1A226EE6A5E26F53AEC1E308B6D5D32C4AD1E16FF6C
:2061C0007A6D5E2BC83088ADDC9B20ECFE0442058804430432044404D8044505DA044604B7
:2061E00042044703E9044B042E044C05100455042C0458041C044D0437044E0528044F05D8
:2062000035045004DA0452028F0453051D04540501045604FA04570493FFA6803406C610DA
:206220003D8D043506840F8B90198940196E9D8EAD8DE78DE5AF648620203DA6618134228C
:2062400039109EC2EEA6EF64AF7E272EAFA6202A8D5D8D5F24FA4D27F9817F27F5A7610DFB
:206260008F2617810D2604860A8DC20DF4260BA661308C09810A270F8DB30C903B04308C25
:20628000FC860D8DA8860A8DA4A680810426F88D1E8D061FA9E7E420E18D18240581182651
:2062A0000253398D0A8D0C24FA811827F44F396E9D8E37AD9D8E21847F394F502D048D4222
:2062C0000D8F26340D902B29306C9CF82523308CE93F02098E308D8DC03F058D172537068E
:2062E0008E25339E91272F301F9F9127298DAA25251604221701C4390F8F1702F63B3F0764
:206300002004E68D8D971F9BA163272E10DE97308CEC3F038DDE16FE118DE720F7CEF34024
:20632000A6414424041212A6433936108EF3401704C88EF3481704C23710393447DEF08DDE
:206340001B81102712D6F2810D2602D6F34FE7E48C8D096AE42AFA35C717FF53F6F341C50F
:206360000427F6B7F3433986116D6626014C3F010C8F3986143F014A3F010A8F8E61A83021
:206380001F26FC39EE626D662754327D3F00815326FA3F0081392722813126F26FE48D21F6
:2063A000E7618D1DE7628D19A66231CB8D13270C6D692B02E7A4E1A027F235924C27CD20D6
:2063C000F98D12C6103D8D0D3404ABE01F89AB62A7626A63393F001701D427F835F2DEF2B0
:2063E000AE643456CC0018D7F23F01C604DDF2EC68A362108300182502C6175CE7E4CB037E
:20640000E761308C333F035F30618D278D258D23AE628D1F6AE426FAAF6253E76130618D09
:2064200014AE68AC6224C8308C113F03EC64DDF24F35D6EB8416FDE25301045339303330D5
:2064400030303046430D0A043F06C6063F075A26FB5F1F9817FDD03F073F075CC11025F26C
:206460003F06252F30643F05AE64C6103F045A26FB3F07AE64C610A6802B04812024028635
:206480002E3F015A26F1AC622409AF64A6654826CF20B53F06398D234C8D21395043FF13AC
:2064A00041000A42000B58FF0D59FF0F55FF1153FF01434300094450000C004F30E81034E7
:2064C00032318CD8ECA04D2F043F0120F7862D3F0130E56DE426126D3F27033F058C3F0418
:2064E000ECA05D26DF3F0635B28D402710810D271EE63F5A50583F075A26FB20E3A7E4DC59
:206500009B6D3F2602A682ED84A6E4810D26D1308D8B3EC6153502A7805A26F910EE88ECBA
:20652000C615A68234025A26F920BC4F8C8620978E6E9D8BB734148D5C2718918E27F89E8E
:206540009E814D27169E93815027109EA08157270A35948D4427FC200AAE849F9B0D8E27FD
:20656000F08D629E9B812B260E8D233402DC9B308B9F9B350220EC812D2707814027DA5F91
:2065800020CF8D0A3402DC9B4050820020E18D9D273216FBF80F9B0F9C8D2A8D112625C66E
:2065A000103D860458099C099B4A26F820148130251281392F0A8141250A81462206800785
:2065C000840F1A04393F00811827C7398D013B3530341026191701D6AE6C5A2B16A630ACFC
:2065E000A126F7813F260297FB0C8F1601261700DBED6C1701B800FA5A2BC9A6B4A7308671
:206600003FA7B120F38DC8357FADF13F0A20FCCCE9008D163BCCC0008D103BCCEE008D0A7C
:206620003BBDFB00CCCD008D013BED6C20C517009BDD9E9E9E17FBE2862D3F0117FEEC274F
:206640000A812C260E9F9E300120F1D69C8D48812C27E98127260D17FF6B8127270C1F89ED
:206660008D3520F3812026069F9E3F0720C5810A2608860D3F019F9E200A815E260A301EC0
:206680009F9E3F068D0720AB812F27F6399E9E341030E43F0535909E9EE780E11F26039F0B
:2066A0009E393402863F3F0135828D20DDA0398D1BC4F01F02302F25048D1130AB343010BC
:2066C000A3622302EDE4AD9D8A1835E017FE5E2609812F2205810EDC9B3916FAB08DED1FAD
:2066E000028DE96FE23426AD9D89F9AD9D89F73401AD9D89F3350126E135B28D010133F10F
:2067000033D427038DC68C4F5F344E20DA8DEFFF8DBADD913262EEF80ADF99DEF6CC07016B
:20672000ED423B8DA7DDF23927058DA0DDF839306E9FF8398D961F018D9230013430A3E460
:20674000EDE430611DA1E426023F04EEE4335FEF843F053F063596272317FDD1272C812D6F
:20676000263F17FDC827030FFA398D405A2B32ACA126F9AEA1AF3C5A2AF90AFA8D2E27E9F6
:2067800030A13F055A26F93F06398D20C1082711A684E784E1842609A7845A2B07ACA126EC
:2067A000F916F9E9AFA46F310CFA20D09E9B318D8900D6FA396FE25F308C673F00815B2662
:2067C000068610A7E43F00810D270C6D842BD2A18126F8EB1F20EE308C711F988460AAE4F6
:2067E000A7E4C49F6D8427B9E18126F8E61FEAE4E7E430E43F043F0635848EF3408610A769
:20680000028693A7008634A7008670A70486CCA7018620A7028630A7028645A7028601A76A
:206820000E3941044205440648014801480148002C002D092D0153705930555058102B07FD
:206840002B015080430052005D00FF108411001288138914861585168B1780188119821AB6
:2068600083828C838D039F006E9D885A6E9D88586E9D88566E9D88546E9D88526E9D885065
:206880006E9D884EFFFFFFFFFFFFFFFFFFFFFFFFFFFFFFFFFFFFFFFFFFFFFFFFFFFFFFFF33
:206900007EEADB000000E00000000000464C45584449534B202020464C4558204469736BC0
:2069200020466F726D61747465720D0A044472697665206E756D62657220746F20666F725B
:206940006D61742028302D33293A20040D0A506C6561736520656E74657220302C20312CEE
:206960002032206F7220332E0D0A040D0A466F726D617474696E6720447269766520040DAB
:206980000A04546869732077696C6C20455241534520414C4C2044415441206F6E207468BD
:2069A0006520434620436172642E0D0A5072657373205920746F20666F726D61742C20610B
:2069C0006E79206F74686572206B657920746F2061626F72743A20040D0A41626F72746518
:2069E00064202D2D206E6F7468696E6720776173207772697474656E2E0D0A04577269741B
:206A0000696E672053797374656D20496E666F726D6174696F6E205265636F72642E2E2EE4
:206A20000D0A04436C656172696E6720726573657276656420547261636B203020736563D6
:206A4000746F72732E2E2E0D0A0457726974696E6720656D707479206469726563746F721A
:206A60007920636861696E2E2E2E0D0A0457726974696E6720667265652D737061636520D6
:206A8000636861696E20286F6E6520646F742070657220747261636B292E2E2E0D0A040D8B
:206AA0000A466F726D617420636F6D706C6574652E0D0A0443462043617264206572726FA6
:206AC0007220647572696E6720696E697469616C69736174696F6E2E0D0A048EE9173F0381
:206AE000BDEB3F8EE96B3F03B6E9098B303F018EE97F3F038EE9823F033F0084DF815927D2
:206B0000068EE9D83F0339BDEB7BBEE907E607C50127068EEAB43F03398EE9FC3F03BDEBF0
:206B2000C98EEA233F03BDEC3E8EEA4A3F03BDEC698EEA6D3F03BDECAA8EEA9F3F03393472
:206B4000168EE92D3F033F008130250B813322078030B7E90920078EE94C3F0320E3B6E915
:206B6000098401B7E905B6E909840227058EF30020038EF2C0BFE907351639BEE907BDED19
:206B8000ABC604E707BDEDABC6E0E706BDEDABC601E701BDEDABC601E702BDEDABC6EFE7B0
:206BA00007BDEDABF6E903E703BDEDABF6E904E704BDEDABF6E905E705BDEDABF6E906C467
:206BC0000FCAE0E706BDEDAB393436BDED118E1000308810108EE90CC60BA6A0A7805A26A5
:206BE000F98E1000B6E9098B30A788188600A7881BB6E909A7881C8601A7881D8601A78808
:206C00001E86FFA7881F86FFA7882086FEA788218601A788228601A788238601A7882486CA
:206C200026A7882586FFA7882686FFA788278600B7E9048603B7E903BDED253536393436F2
:206C40008600B7E904BDED118601B7E903BDED25BDED118602B7E903BDED25BDED1186045C
:206C6000B7E903BDED2535363934368605B7E90BBDED11B6E90B81FF2708C600B6E90B4C8E
:206C80002004C60086008E1000E784A7018600B7E904B6E90BB7E903BDED25B6E90B81FF63
:206CA00027057CE90B20C935363934368601B7E90A8601B7E90BBDED11B6E90B81FF2709C9
:206CC000F6E90AB6E90B4C2013B6E90A81FF2708F6E90A5C86012004C60086008E1000E789
:206CE00084A701B6E90AB7E904B6E90BB7E903BDED25B6E90B81FF27057CE90B20B8862EAD
:206D00003F01B6E90A81FF27057CE90A20A3353639343286008E0100108E1000A7A0301F49
:206D200026FA353239343610BEE907BDED7CF6E903E723BDED7CF6E904E724BDED7CF6E940
:206D400005E725BDED7CC6E0E726BDED7CC601E722BDEDABC630E727BDED9E86008E10008E
:206D6000BDED90E680E7204C26F68600C600BDED90E7204C26F8BDED7C3536393416BEE952
:206D800007E607C58026FAE607C54027FA3516393412BEE907E607C58026FA351239E62730
:206DA000C58026FAE627C50827F4393412BEE907E607C5C027FA351239FFFFFFFFFFFFFF40
:206E00007EEE0C000000000000000000BDDE158606BDEEAFBDEE9E81042779810126F5BD9C
:206E2000EE9EB7EE07BDEE9EB7EE08BDEE9EB7EE098E10007FEE0A7FEE0BBDEE9EA780BB75
:206E4000EE0BB7EE0B7CEE0AB6EE0A26EDBDEE9EB1EE0B270C8615BDEEAF86FFBDEEAF203A
:206E6000B3B6EE07B7EE068EEE03BDDE0C5D2616B6EE08F6EE098E1000BDDE035D26078665
:206E800006BDEEAF208E34048615BDEEAF3502BDEEAF20808606BDEEAFAD9FD3F3393440E1
:206EA000CEF340A6414424F81212A6433540393444CEF340E641C50427FAA743354439FFAA
:207800000000003440CEF340A6414424F81212A643354039393939393939CEF3408680A7ED
:207820004E16E81834128EF3408610A7028693A7008634A7008670A70486CCA7018620A795
:20784000028630A7028645A7028601A70E3512393442CEF340A64184013542393444CEF3CB
:2078600040E641C50427FAA7433544393444CEF340A6414424F8A6433402E641C50427FA2B
:20788000A743354639003422B6F885108EF2C0850235022604108EF300E723BDFA08A72464
:2078A000BDFA08B6F8858401A725BDFA0886E0A726BDFA08C601E722BDFA08C620E727BD94
:2078C000FA3A8600BDFA60E620E7804C26F6BDFA08E620A627850826F535205F393422B6CF
:2078E000F885108EF2C0850235022604108EF300A724BDFA21E723BDFA21B6F8858401A75E
:2079000025BDFA2186E0A726BDFA218601A722BDFA21C630E727BDFA3A8600E680E720BD92
:20792000FA084C26F6C600E720BDFA084C26F8BDFA2135205F395F39A603850226058EF3AE
:207940000020038EF2C08401A7055F39A603B7F885850226088EF300BFF80020068EF2C0CB
:20796000BFF8008401A705B7F8025F39A603850226058EF30020038EF2C08401A705A607B9
:2079800085C027025F39C6FF3920E18EF2C08D068EF3008D0139BFF800BDFA21C604E70780
:2079A000BDFA21C6E0E706BDFA21C601E701BDFA21C601E702BDFA21C6EFE707BDFA21C634
:2079C00000E703BDFA21C600E704BDFA21C600E705BDFA21C6E0E706BDFA2186004C26FD72
:2079E00039393402B6F8858EF2C08502350226038EF300A704BDFA21E703BDFA21B6F8858C
:207A00008401A705BDFA21393456BEF800CEFFFFE607C5802708335F1183000026F23556EE
:207A2000393456BEF800CE0800E607C5C02608335F1183000026F23556393446CEFFFFE629
:207A400027C580270A335F1183000026F2200EE627C5082608335F1183000026F235463923
:207A60003446CE0200E627C580270A335F1183000026F2200EE627C5082608335F1183009F
:207A80000026F2354639FFFFFFFFFFFFFFFFFFFFFFFFFFFFFFFFFFFFFFFFFFFFFFFFFFFF34
:207B00003476CEF2308601A74E8EFC0FBFFFF886018D2D251A4FA74D8D72251BBDFBD48EE4
:207B2000FC883F03CEF230860AA74E8D4A35F64FA74D8EFC2020038EFC4F3F038D3935F6EC
:207B40003402C6403404A661A74DA64D85022711A66184FEA74D8D2E6A6026EA32621A0143
:207B600039108EFC7C1F31C60CA680840FA7A05A26F732621CFE398EFFFFB6F3418508260D
:207B800004301F26F539C6FF5A26FD39B6FC85C60A3DFBFC84273AC10C2236F7FC9CB6FC3D
:207BA00083C60A3DFBFC822728C11F2224F7FC9DB6FC87C60A3DFBFC86F7FC9EB6FC9CB75E
:207BC000CC0EB6FC9DB7CC0FB6FC9EB7CC101CFE391A01393440CEFC7C8EFC88108EFBFDFE
:207BE000E6A0C1FF27115D2B08A6C58B30A78020EFC47FE78020E98604A78435C00706AF02
:207C00000908AF0B0AA00504BA0302BA0100FFCEF2308605BDFB402503BDFB8C4FA74D3B10
:207C2000525443206E6F7420726573706F6E64696E67202D20464C45582064617465206CAB
:207C400065667420756E6368616E6765642E04525443206461746520696E76616C69642018
:207C60002D20464C45582064617465206C65667420756E6368616E6765642E040000000000
:207C800000000000000000000000000000000000000000000000000000000000000000FFE5
:207D0000B6CC0E27037ECA6E8ECAD0BDCE827ECA56FFFFFFFFFFFFFFFFFFFFFFFFFFFFFF2F
:207FE000FFFFFFFFFFFFFFFFFFFFFFFFFFFFFFFFE868E86CE870E874E878E87CE880E036F7
:00000001FF
