:18D3E500F803F814F815F816F817F818F819F81AF824F850F85CF86CB0
:1EDE00007EF8867EF8DD7EF9367EF9387EF94C7EF96C7EF9897EF98B7EF9E17EF9E200
:20F800000000003440CEF340A6414424F81212A643354039393939393939CEF3408680A76D
:20F820004E16E81834128EF3408610A7028693A7008634A7008670A70486CCA7018620A715
:20F84000028630A7028645A7028601A70E3512393442CEF340A64184013542393444CEF34B
:20F8600040E641C50427FAA7433544393444CEF340A6414424F8A6433402E641C50427FAAB
:20F88000A743354639003422B6F885108EF2C0850235022604108EF300E723BDFA08A724E4
:20F8A000BDFA08B6F8858401A725BDFA0886E0A726BDFA08C601E722BDFA08C620E727BD14
:20F8C000FA3A8600BDFA60E620E7804C26F6BDFA08E620A627850826F535205F393422B64F
:20F8E000F885108EF2C0850235022604108EF300A724BDFA21E723BDFA21B6F8858401A7DE
:20F9000025BDFA2186E0A726BDFA218601A722BDFA21C630E727BDFA3A8600E680E720BD12
:20F92000FA084C26F6C600E720BDFA084C26F8BDFA2135205F395F39A603850226058EF32E
:20F940000020038EF2C08401A7055F39A603B7F885850226088EF300BFF80020068EF2C04B
:20F96000BFF8008401A705B7F8025F39A603850226058EF30020038EF2C08401A705A60739
:20F9800085C027025F39C6FF3920E18EF2C08D068EF3008D0139BFF800BDFA21C604E70700
:20F9A000BDFA21C6E0E706BDFA21C601E701BDFA21C601E702BDFA21C6EFE707BDFA21C6B4
:20F9C00000E703BDFA21C600E704BDFA21C600E705BDFA21C6E0E706BDFA2186004C26FDF2
:20F9E00039393402B6F8858EF2C08502350226038EF300A704BDFA21E703BDFA21B6F8850C
:20FA00008401A705BDFA21393456BEF800CEFFFFE607C5802708335F1183000026F235566E
:20FA2000393456BEF800CE0800E607C5C02608335F1183000026F23556393446CEFFFFE6A9
:20FA400027C580270A335F1183000026F2200EE627C5082608335F1183000026F2354639A3
:20FA60003446CE0200E627C580270A335F1183000026F2200EE627C5082608335F1183001F
:06FA80000026F2354639B4
:00000001FF
